:100000000C9435000C945D000C945D000C945D0024
:100010000C945D000C945D000C945D000C945D00EC
:100020000C945D000C945D000C945D000C945D00DC
:100030000C945D000C945D000C945D000C945D00CC
:100040000C945D000C945D000C945D000C945D00BC
:100050000C945D000C945D000C945D000C945D00AC
:100060000C945D000C945D00CA0211241FBECFEFFA
:10007000D8E0DEBFCDBF12E0A0E0B1E0EEE8FDE0E9
:1000800002C005900D92A03CB107D9F722E0A0EC88
:10009000B2E001C01D92AA3EB207E1F710E0C5E34D
:1000A000D0E004C02197FE010E941903C433D10798
:1000B000C9F70E942D020C94C5060C94000060FF45
:1000C00011C05C9A61FF10C05D9A62FF0FC05E9A1A
:1000D00063FF0EC05F9A5B9A85E08A95F1F7000096
:1000E0005B9808955C98EECF5D98EFCF5E98F0CF67
:1000F0005F98F1CFCF93DF9300D00F92CDB7DEB7EB
:1001000089839A836B8362956F700E945F006B8115
:1001100089819A810E945F0087EC90E00197F1F756
:1001200000C000000F900F900F90DF91CF910895C5
:100130004295440F440F407C6058640F0C947A0041
:1001400061E00E947A008FE39FE10197F1F700C020
:100150000000089562E00E947A008FE39FE101971A
:10016000F1F700C000000895CF93DF9300D00F9205
:10017000CDB7DEB789839A836B8362956F700E94D7
:100180005F008FE19EE40197F1F700C000006B81F2
:1001900089819A810E945F008FE19EE40197F1F7C7
:1001A00000C000000F900F900F90DF91CF91089545
:1001B0005A9A0E94B4005A9808950F931F93CF93B0
:1001C000DF9300D000D0CDB7DEB789839A836B83ED
:1001D0007C8300E010E0EB81FC818081811109C00B
:1001E0000F900F900F900F90DF91CF911F910F9173
:1001F00008958B819C8101968B839C83003111052E
:1002000029F460EC89819A810E947A00EB81FC815B
:10021000629189819A810E94D8000F5F1F4FDBCFC6
:100220000F931F93CF93DF9300D000D0CDB7DEB7ED
:1002300089839A838A01660F660F660F687360640C
:100240000E947A000B831C830B811C81085F1F4F67
:10025000EB81FC816191EB83FC8389819A810E940F
:10026000D8008B819C818017910791F70F900F9098
:100270000F900F90DF91CF911F910F9108950F93E1
:100280001F93CF93DF93CDB7DEB7A0970FB6F89447
:10029000DEBF0FBECDBF8C01529A539A549A559A25
:1002A000569A579A5C982FEF80E792E02150804051
:1002B0009040E1F700C0000063E0C8010E945F00C9
:1002C0008FE19EE40197F1F700C0000063E0C801F0
:1002D0000E945F008FE891E00197F1F700C00000F5
:1002E00063E0C8010E945F0062E0C8010E945F00F5
:1002F00068E2C8010E947A006CE0C8010E947A009E
:10030000C8010E94A00066E0C8010E947A0095E83A
:100310009A95F1F7000088E0ECE8F2E0DE015996EA
:1003200001900D928A95E1F7AE01475E5F4F60E064
:10033000C8010E94100188E0E7EBF2E0DE0151966F
:1003400001900D928A95E1F7AE014F5E5F4F61E03B
:10035000C8010E94100188E0E4E9F2E0DE0119968C
:1003600001900D928A95E1F7AE01475F5F4F62E021
:10037000C8010E94100188E0ECE9F2E0DE0111966C
:1003800001900D928A95E1F7AE014F5F5F4F63E0F8
:10039000C8010E941001A0960FB6F894DEBF0FBEF0
:1003A000CDBFDF91CF911F910F910895FC01108275
:1003B0001182128213820C943F01CF93C82F8A308E
:1003C00029F460E070E08DE00E94DD018091C000C2
:1003D00085FFFCCFC093C60080E090E0CF910895E8
:1003E0008091C00087FFFCCF8091C60090E0089507
:1003F0001092C50083E38093C400E0ECF0E08081BC
:100400008D7F808386E08093C20088E18093C10065
:1004100008950F931F93CF93DF9306ED12E082E0D0
:10042000F80183838DED91E080879187C8ECD2E05D
:1004300081E08B8380EF91E08A879B870E94F8019F
:100440000093E6021093E702C093E402D093E50222
:10045000DF91CF911F910F91089500D000D000D06F
:10046000CDB7DEB70E9409027E012FEFE21AF20A31
:10047000C7010E94D601C7010E943F01C7010E9427
:10048000A000ED82FE8286E192E0D82EC92E009374
:100490000001109301010E946D0364EA78E30E9459
:1004A000F1028C011F938F9384EA92E09F938F93C4
:1004B0000E947B030F900F900F900F908091C602C7
:1004C0009091C702081719070CF44AC08091C40222
:1004D0009091C502081719070CF447C08091C20219
:1004E0009091C302081719070CF446C08091C0020E
:1004F0009091C102081719070CF045C003E010E005
:100500003CE2E32E31E0F32E809100019091010155
:100510008017910709F4BFCF0E946D03F701628134
:1005200073810E94F102F4E2F89F9001F99F300D6F
:100530001124F70160817181620F731F8D819E818B
:100540000E94DD00FFEF23E244EFF15020404040E5
:10055000E1F700C000008D819E810E94A00097CF2E
:1005600000E010E0ED2CFC2CCFCF01E010E028ECF7
:10057000E22E21E0F22EC8CF02E010E09AE7E92E49
:1005800091E0F92EC1CF04E010E082E0E82E81E096
:10059000F82EBACF80911A0290911B028093C60266
:1005A0009093C7022091CC013091CD01820F931F0F
:1005B0008093C4029093C50220917E0130917F0107
:1005C000820F931F8093C2029093C3022091300147
:1005D00030913101820F931F8093C0029093C1022A
:1005E000089597FB072E16F4009407D077FD09D0E5
:1005F0000E94050307FC05D03EF4909581959F4F1E
:100600000895709561957F4F0895AA1BBB1B51E11A
:1006100007C0AA1FBB1FA617B70710F0A61BB70B72
:10062000881F991F5A95A9F780959095BC01CD0117
:100630000895EE0FFF1F0590F491E02D0994AAE0B4
:10064000B0E0E5E2F3E00C946D0689879A87FC013F
:10065000608171818281938100977040604021F4B4
:1006600064E279ED8BE597E02DE133EF41E050E076
:100670000E942B0629833A834B835C839B01AC0148
:10068000A7EAB1E40E944A066D837E838F83988730
:10069000ACEEB4EF29813A814B815C810E9458060F
:1006A0002D813E814F815885260F371F481F591FC6
:1006B000C901DA01B7FF03C00197A109B048E98574
:1006C000FA8580839183A283B3839F772A96E2E0A1
:1006D0000C9489060E941F03089588E892E00E9406
:1006E0001F030895809388029093890210928A02D2
:1006F00010928B020895A0E0B0E0E1E8F3E00C94E2
:100700006D06AE014B5F5F4FFA0161917191AF01D0
:100710008091E6029091E7020E949103E2E00C943E
:100720008906ACE0B0E0E7E9F3E00C9460065C0118
:100730006B017A01FC0116821782838181FFD3C18C
:100740002AE0522EF5012381F60123FD859123FF36
:1007500081916F01811509F42CC1853239F423FD93
:10076000959123FF91916F01953229F4B50190E0A5
:100770000E948C05E7CF30E0712C00E010E01032D1
:1007800010F59B32C9F050F49032B9F09332C9F0B1
:100790009E3261F516FD0DC1106405C09D3279F0E1
:1007A000903399F41160F60123FD959123FF919107
:1007B0006F019111E4CF23C012601460F4CF186070
:1007C000F2CF1061F0CF17FD1AC080ED890F8A308B
:1007D000F8F616FF05C0759C800D1124782EE3CF26
:1007E000059D800D1124082F1062DDCF9C3611F479
:1007F0001068D9CF9C3409F440C09836A1F2892FF3
:100800008F7D85548330D8F1933609F45FC09337D8
:1008100009F46AC0933509F476C0943619F0993614
:1008200009F0A2C0F70117FF98C061917191819101
:1008300091917F011F7697FF03C00E9442061068C6
:100840002AE030E04E014FEF841A940AA4010E947E
:10085000CD05682E681816FFD2C0812F8E7F6714D1
:1008600008F0CCC014FF1DC112FD11C11E7E972CD3
:10087000812F867809F4CEC00FC131E094CF3115B5
:1008800009F1F8E0EF0EF11C8FE3898391E0692E06
:10089000712C4E018FEF881A980A1F7713FD04C040
:1008A0006016710408F43FC06114710409F042C07D
:1008B000011509F447CFB50180E290E00E948C0554
:1008C0000150F6CF44E0E40EF11CDECFF701808149
:1008D0008983F2E0EF0EF11C81E0682E712C4E014D
:1008E0004FEF841A940AD9CFF701819091907F013C
:1008F000672D70E016FD02C06FEF7FEFC4010E940C
:1009000081053C01CACFF701819091907F01672D4D
:1009100070E016FD02C06FEF7FEFC4010E94760504
:100920003C011068BBCFB50180E290E00E948C05CD
:100930000150B6CFF40117FD859117FF81914F014A
:10094000B50190E00E948C0581E0011101C080E0BA
:10095000081BF1E06F1A7108A7CF61917191872F81
:10096000880F880B982F65CF9537C9F41F7E1C8799
:100970002AE030E0FC85F7FF3BC0F70161917191FF
:10098000819191917F014E014FEF841A940AA40145
:100990000E94CD05682E68181C851F775CCF812FBB
:1009A000897F8C87903799F058F49835B9F09F3645
:1009B000E1F0F501868197812C96EFE00C947C069E
:1009C0009837B9F714FD06C020E130E0D3CF9C85FD
:1009D00090619C87EC85E460EC87F6CF14FF02C041
:1009E00016601C8720E132E0C5CF28E030E0C2CF9E
:1009F000F7016191719180E090E0C4CF182F962C9F
:100A000014FF36CFFE01E60DF11D8081803309F021
:100A100041C0197E13FD0EC010FF4FC0762C9016FA
:100A200018F4700E7918902E802F8919091508F482
:100A300080E0980E901608F042C0091914FF41C0DA
:100A4000B50180E390E00E948C0512FF09C088E5A3
:100A500090E011FD02C088E790E0B5010E948C058E
:100A60006714D0F14E018FEF881A980A6A94FE013C
:100A70003296E60DF11D3F01F30182913F01B50170
:100A800090E00E948C0568147904B1F711CF972C7F
:100A9000182FB8CF12FD02C09394BCCF93949394B7
:100AA000B9CF972C182FE4CEB50180E290E00E94D8
:100AB0008C0583948016C0F3B7CF892CFBCF00E060
:100AC000BDCF812F867861F280E211FD8BE217FDA8
:100AD0008DE2B50190E0C2CFB50180E390E00E94C5
:100AE0008C057A94BDCF8FEF9FEF66CFFC01059008
:100AF000615070400110D8F7809590958E0F9F1F20
:100B00000895FC016150704001900110D8F7809564
:100B100090958E0F9F1F0895A3E0B0E0E2E9F5E005
:100B20000C946C06182F99836A837B83DB011396E0
:100B30008C9181FD09C01FEFBFEFB983812F99818F
:100B40002396E3E00C94880682FF1BC0EA81FB81B8
:100B500026813781848195812817390754F40190C3
:100B6000F081E02DCF010196AA81BB818D939D93E9
:100B70001083EA81FB818681978101968683978322
:100B8000DDCFAA81BB811896ED91FD911A97BD0129
:100B9000812F0995892B69F3CECFFA01AA27283036
:100BA00051F1203181F1E8946F936E7F6E5F7F4F3A
:100BB0008F4F9F4FAF4FB1E03ED0B4E03CD0670FB6
:100BC000781F891F9A1FA11D680F791F8A1F911D09
:100BD000A11D6A0F711D811D911DA11D20D009F459
:100BE00068943F912AE0269F11243019305D31939B
:100BF000DEF6CF010895462F4770405D4193B3E084
:100C00000FD0C9F7F6CF462F4F70405D4A3318F02A
:100C1000495D31FD4052419302D0A9F7EACFB4E0DB
:100C2000A6959795879577956795BA95C9F7009793
:100C30006105710508959B01AC010A2E0694579534
:100C4000479537952795BA95C9F7620F731F841F8B
:100C5000951FA01D0895052E97FB1EF400940E9479
:100C6000420657FD07D00E94A30607FC03D04EF4AE
:100C70000C94420650954095309521953F4F4F4F2B
:100C80005F4F089590958095709561957F4F8F4F38
:100C90009F4F08950E949406A59F900DB49F900DBC
:100CA000A49F800D911D11240895B7FF0C944A064E
:100CB0000E944A06821B930B08952F923F924F92F7
:100CC0005F926F927F928F929F92AF92BF92CF92DC
:100CD000DF92EF92FF920F931F93CF93DF93CDB7E5
:100CE000DEB7CA1BDB0B0FB6F894DEBF0FBECDBF5D
:100CF00009942A88398848885F846E847D848C842E
:100D00009B84AA84B984C884DF80EE80FD800C8136
:100D10001B81AA81B981CE0FD11D0FB6F894DEBF19
:100D20000FBECDBFED010895A29FB001B39FC001DA
:100D3000A39F700D811D1124911DB29F700D811D07
:100D40001124911D0895A1E21A2EAA1BBB1BFD01BF
:100D50000DC0AA1FBB1FEE1FFF1FA217B307E4079A
:100D6000F50720F0A21BB30BE40BF50B661F771FF2
:100D7000881F991F1A9469F76095709580959095D2
:0E0D80009B01AC01BD01CF010895F894FFCF97
:100D8E00FFFF08010100E80353796E61732068E1EB
:100D9E00723F20494F543A732052656B6C616D62FD
:100DAE007972E00000000000000000003201020035
:100DBE00A00F4D79737465726965723F2052696E2A
:100DCE0067204CE06E6762656E0000000000000058
:100DDE000000000000004CE06E6762656E206669E0
:100DEE007861722062696666656E00000000000020
:100DFE000000000000000000000080010200DC0581
:100E0E004CE0742050657474657220627967676176
:100E1E0020E07420646967000000000000000000FC
:100E2E000000000042796767612073766172743F3B
:100E3E002052696E67205065747465720000000060
:100E4E000000000000000000CE010200B80B4BEFC6
:100E5E00702070616A20686F73204661726D6F72C8
:100E6E0020416E6B610000000000000000000000D9
:100E7E000000536B796E646120696E6E616E204D59
:100E8E00E07274656E20E174697420616C6C61208F
:100E9E0070616A6572001C02030088134BEF7020AC
:100EAE0062696C20686F732048617272790000006D
:100EBE000000000000000000000000000000000024
:100ECE00456E20676F642062696C616666E1722010
:100EDE002866EF72204861727279212900000000A5
:100EEE000000000048656465726C696765204861A2
:100EFE00727279732042696C61720000000000000A
:100F0E0000000000000000000100000004000E01BF
:100F1E000F110F00000C0A090A0C000000060A123D
:100F2E000A06000052616E646F6D206E756D62650B
:100F3E00723A2025640A001F110A04040A111F00C8
:00000001FF
